{
  "contractName": "ItemManager",
  "abi": [
    {
      "anonymous": false,
      "inputs": [
        {
          "indexed": false,
          "internalType": "uint256",
          "name": "_itemIndex",
          "type": "uint256"
        },
        {
          "indexed": false,
          "internalType": "uint256",
          "name": "_step",
          "type": "uint256"
        },
        {
          "indexed": false,
          "internalType": "address",
          "name": "_itemAddress",
          "type": "address"
        }
      ],
      "name": "SupplyChainStep",
      "type": "event"
    },
    {
      "inputs": [],
      "name": "isOwner",
      "outputs": [
        {
          "internalType": "bool",
          "name": "",
          "type": "bool"
        }
      ],
      "stateMutability": "view",
      "type": "function"
    },
    {
      "inputs": [
        {
          "internalType": "string",
          "name": "_identifier",
          "type": "string"
        },
        {
          "internalType": "uint256",
          "name": "_itemPrice",
          "type": "uint256"
        }
      ],
      "name": "createItem",
      "outputs": [],
      "stateMutability": "nonpayable",
      "type": "function"
    },
    {
      "inputs": [
        {
          "internalType": "uint256",
          "name": "_itemIndex",
          "type": "uint256"
        }
      ],
      "name": "triggerPayment",
      "outputs": [],
      "stateMutability": "payable",
      "type": "function"
    },
    {
      "inputs": [
        {
          "internalType": "uint256",
          "name": "_itemIndex",
          "type": "uint256"
        }
      ],
      "name": "triggerDelivery",
      "outputs": [],
      "stateMutability": "nonpayable",
      "type": "function"
    }
  ],
  "bytecode": "0x608060405234801561001057600080fd5b50336000806101000a81548173ffffffffffffffffffffffffffffffffffffffff021916908373ffffffffffffffffffffffffffffffffffffffff160217905550611615806100606000396000f3fe608060405260043610620000445760003560e01c8063800fb83f14620000495780638c55174214620000695780638f32d59b1462000097578063cd31831e14620000c7575b600080fd5b62000067600480360381019062000061919062000812565b620000f5565b005b3480156200007657600080fd5b506200009560048036038101906200008f9190620009a6565b620002d2565b005b348015620000a457600080fd5b50620000af620004e0565b604051620000be919062000a29565b60405180910390f35b348015620000d457600080fd5b50620000f36004803603810190620000ed919062000812565b62000536565b005b3460016000838152602001908152602001600020600201541462000150576040517f08c379a0000000000000000000000000000000000000000000000000000000008152600401620001479062000aa7565b60405180910390fd5b6000600281111562000167576200016662000ac9565b5b6001600083815260200190815260200160002060030160009054906101000a900460ff166002811115620001a0576200019f62000ac9565b5b14620001e3576040517f08c379a0000000000000000000000000000000000000000000000000000000008152600401620001da9062000b48565b60405180910390fd5b600180600083815260200190815260200160002060030160006101000a81548160ff021916908360028111156200021f576200021e62000ac9565b5b02179055507fa4035636e99f06b7651a604c1019fa4e8779fe68ef27eeb74dff2de348f6199b816001600084815260200190815260200160002060030160009054906101000a900460ff1660028111156200027f576200027e62000ac9565b5b6001600085815260200190815260200160002060000160009054906101000a900473ffffffffffffffffffffffffffffffffffffffff16604051620002c79392919062000bc0565b60405180910390a150565b620002dc620004e0565b6200031e576040517f08c379a0000000000000000000000000000000000000000000000000000000008152600401620003159062000c4d565b60405180910390fd5b60003082600254604051620003339062000705565b620003419392919062000cda565b604051809103906000f0801580156200035e573d6000803e3d6000fd5b5090508060016000600254815260200190815260200160002060000160006101000a81548173ffffffffffffffffffffffffffffffffffffffff021916908373ffffffffffffffffffffffffffffffffffffffff160217905550826001600060025481526020019081526020016000206001019080519060200190620003e692919062000713565b508160016000600254815260200190815260200160002060020181905550600060016000600254815260200190815260200160002060030160006101000a81548160ff0219169083600281111562000443576200044262000ac9565b5b02179055507fa4035636e99f06b7651a604c1019fa4e8779fe68ef27eeb74dff2de348f6199b60025460016000600254815260200190815260200160002060030160009054906101000a900460ff166002811115620004a757620004a662000ac9565b5b83604051620004b99392919062000bc0565b60405180910390a160026000815480929190620004d69062000d46565b9190505550505050565b60003373ffffffffffffffffffffffffffffffffffffffff1660008054906101000a900473ffffffffffffffffffffffffffffffffffffffff1673ffffffffffffffffffffffffffffffffffffffff1614905090565b62000540620004e0565b62000582576040517f08c379a0000000000000000000000000000000000000000000000000000000008152600401620005799062000c4d565b60405180910390fd5b6001600281111562000599576200059862000ac9565b5b6001600083815260200190815260200160002060030160009054906101000a900460ff166002811115620005d257620005d162000ac9565b5b1462000615576040517f08c379a00000000000000000000000000000000000000000000000000000000081526004016200060c9062000de4565b60405180910390fd5b60026001600083815260200190815260200160002060030160006101000a81548160ff0219169083600281111562000652576200065162000ac9565b5b02179055507fa4035636e99f06b7651a604c1019fa4e8779fe68ef27eeb74dff2de348f6199b816001600084815260200190815260200160002060030160009054906101000a900460ff166002811115620006b257620006b162000ac9565b5b6001600085815260200190815260200160002060000160009054906101000a900473ffffffffffffffffffffffffffffffffffffffff16604051620006fa9392919062000bc0565b60405180910390a150565b6107748062000e6c83390190565b828054620007219062000e35565b90600052602060002090601f01602090048101928262000745576000855562000791565b82601f106200076057805160ff191683800117855562000791565b8280016001018555821562000791579182015b828111156200079057825182559160200191906001019062000773565b5b509050620007a09190620007a4565b5090565b5b80821115620007bf576000816000905550600101620007a5565b5090565b6000604051905090565b600080fd5b600080fd5b6000819050919050565b620007ec81620007d7565b8114620007f857600080fd5b50565b6000813590506200080c81620007e1565b92915050565b6000602082840312156200082b576200082a620007cd565b5b60006200083b84828501620007fb565b91505092915050565b600080fd5b600080fd5b6000601f19601f8301169050919050565b7f4e487b7100000000000000000000000000000000000000000000000000000000600052604160045260246000fd5b62000899826200084e565b810181811067ffffffffffffffff82111715620008bb57620008ba6200085f565b5b80604052505050565b6000620008d0620007c3565b9050620008de82826200088e565b919050565b600067ffffffffffffffff8211156200090157620009006200085f565b5b6200090c826200084e565b9050602081019050919050565b82818337600083830152505050565b60006200093f6200093984620008e3565b620008c4565b9050828152602081018484840111156200095e576200095d62000849565b5b6200096b84828562000919565b509392505050565b600082601f8301126200098b576200098a62000844565b5b81356200099d84826020860162000928565b91505092915050565b60008060408385031215620009c057620009bf620007cd565b5b600083013567ffffffffffffffff811115620009e157620009e0620007d2565b5b620009ef8582860162000973565b925050602062000a0285828601620007fb565b9150509250929050565b60008115159050919050565b62000a238162000a0c565b82525050565b600060208201905062000a40600083018462000a18565b92915050565b600082825260208201905092915050565b7f4f6e6c792066756c6c207061796d656e74206172652061636365707465640000600082015250565b600062000a8f601e8362000a46565b915062000a9c8262000a57565b602082019050919050565b6000602082019050818103600083015262000ac28162000a80565b9050919050565b7f4e487b7100000000000000000000000000000000000000000000000000000000600052602160045260246000fd5b7f6974656d7320617265206e6f74206372656174656420746f207061796d656e74600082015250565b600062000b3060208362000a46565b915062000b3d8262000af8565b602082019050919050565b6000602082019050818103600083015262000b638162000b21565b9050919050565b62000b7581620007d7565b82525050565b600073ffffffffffffffffffffffffffffffffffffffff82169050919050565b600062000ba88262000b7b565b9050919050565b62000bba8162000b9b565b82525050565b600060608201905062000bd7600083018662000b6a565b62000be6602083018562000b6a565b62000bf5604083018462000baf565b949350505050565b7f4f6e6c79204f776e657220686173206163636573730000000000000000000000600082015250565b600062000c3560158362000a46565b915062000c428262000bfd565b602082019050919050565b6000602082019050818103600083015262000c688162000c26565b9050919050565b6000819050919050565b600062000c9a62000c9462000c8e8462000b7b565b62000c6f565b62000b7b565b9050919050565b600062000cae8262000c79565b9050919050565b600062000cc28262000ca1565b9050919050565b62000cd48162000cb5565b82525050565b600060608201905062000cf1600083018662000cc9565b62000d00602083018562000b6a565b62000d0f604083018462000b6a565b949350505050565b7f4e487b7100000000000000000000000000000000000000000000000000000000600052601160045260246000fd5b600062000d5382620007d7565b91507fffffffffffffffffffffffffffffffffffffffffffffffffffffffffffffffff82141562000d895762000d8862000d17565b5b600182019050919050565b7f6974656d20696e20746865206675727468657220696e2074686520636861696e600082015250565b600062000dcc60208362000a46565b915062000dd98262000d94565b602082019050919050565b6000602082019050818103600083015262000dff8162000dbd565b9050919050565b7f4e487b7100000000000000000000000000000000000000000000000000000000600052602260045260246000fd5b6000600282049050600182168062000e4e57607f821691505b6020821081141562000e655762000e6462000e06565b5b5091905056fe608060405234801561001057600080fd5b5060405161077438038061077483398181016040528101906100329190610134565b816000819055508060028190555082600360006101000a81548173ffffffffffffffffffffffffffffffffffffffff021916908373ffffffffffffffffffffffffffffffffffffffff160217905550505050610187565b600080fd5b600073ffffffffffffffffffffffffffffffffffffffff82169050919050565b60006100b98261008e565b9050919050565b60006100cb826100ae565b9050919050565b6100db816100c0565b81146100e657600080fd5b50565b6000815190506100f8816100d2565b92915050565b6000819050919050565b610111816100fe565b811461011c57600080fd5b50565b60008151905061012e81610108565b92915050565b60008060006060848603121561014d5761014c610089565b5b600061015b868287016100e9565b935050602061016c8682870161011f565b925050604061017d8682870161011f565b9150509250925092565b6105de806101966000396000f3fe6080604052600436106100385760003560e01c80632986c0e5146102505780633c8da5881461027b57806389794d00146102a657610241565b3661024157600060015414610082576040517f08c379a000000000000000000000000000000000000000000000000000000000815260040161007990610340565b60405180910390fd5b34600054146100c6576040517f08c379a00000000000000000000000000000000000000000000000000000000081526004016100bd906103ac565b60405180910390fd5b34600160008282546100d89190610405565b925050819055506000600360009054906101000a900473ffffffffffffffffffffffffffffffffffffffff1673ffffffffffffffffffffffffffffffffffffffff163460025460405160240161012e919061046a565b6040516020818303038152906040527f800fb83f000000000000000000000000000000000000000000000000000000007bffffffffffffffffffffffffffffffffffffffffffffffffffffffff19166020820180517bffffffffffffffffffffffffffffffffffffffffffffffffffffffff83818316178352505050506040516101b891906104ff565b60006040518083038185875af1925050503d80600081146101f5576040519150601f19603f3d011682016040523d82523d6000602084013e6101fa565b606091505b505090508061023e576040517f08c379a000000000000000000000000000000000000000000000000000000000815260040161023590610588565b60405180910390fd5b50005b34801561024d57600080fd5b50005b34801561025c57600080fd5b506102656102d1565b604051610272919061046a565b60405180910390f35b34801561028757600080fd5b506102906102d7565b60405161029d919061046a565b60405180910390f35b3480156102b257600080fd5b506102bb6102dd565b6040516102c8919061046a565b60405180910390f35b60025481565b60005481565b60015481565b600082825260208201905092915050565b7f4974656d206973207061696420616c7265616479000000000000000000000000600082015250565b600061032a6014836102e3565b9150610335826102f4565b602082019050919050565b600060208201905081810360008301526103598161031d565b9050919050565b7f6f6e6c792066756c6c207061796d656e747320616c6c6f776564000000000000600082015250565b6000610396601a836102e3565b91506103a182610360565b602082019050919050565b600060208201905081810360008301526103c581610389565b9050919050565b6000819050919050565b7f4e487b7100000000000000000000000000000000000000000000000000000000600052601160045260246000fd5b6000610410826103cc565b915061041b836103cc565b9250827fffffffffffffffffffffffffffffffffffffffffffffffffffffffffffffffff038211156104505761044f6103d6565b5b828201905092915050565b610464816103cc565b82525050565b600060208201905061047f600083018461045b565b92915050565b600081519050919050565b600081905092915050565b60005b838110156104b957808201518184015260208101905061049e565b838111156104c8576000848401525b50505050565b60006104d982610485565b6104e38185610490565b93506104f381856020860161049b565b80840191505092915050565b600061050b82846104ce565b915081905092915050565b7f74686973207472616e73636174696f6e207761736e277420737563636573736660008201527f756c6c2c2063616c63656c696e67000000000000000000000000000000000000602082015250565b6000610572602e836102e3565b915061057d82610516565b604082019050919050565b600060208201905081810360008301526105a181610565565b905091905056fea26469706673582212206ed8e1c8451eb771270fe2820fc118bbc56af39dabc8f7a5ae09c0575243b72d64736f6c634300080c0033a2646970667358221220f3b988467408344e3783dddb5401695ba39d0659b64b83916978970349962f7e64736f6c634300080c0033",
  "immutableReferences": {},
  "source": "//SPDX-License-Identifier:MIT\npragma solidity ^0.8.1;\n\nimport \"./Ownable.sol\";\nimport \"./Item.sol\";\n\ncontract ItemManager is Ownable{\n\n    enum SupplychainState{Created, Paid, Delivered}\n\n    struct S_Item{\n        Item _item;\n        string _identifier;\n        uint   _itemPrice;\n        ItemManager.SupplychainState _state;\n    }\n\n    mapping(uint =>S_Item) items;\n    uint itemIndex;\n\n    event SupplyChainStep(uint _itemIndex,uint _step,address _itemAddress);\n\n    function createItem(string memory _identifier,uint _itemPrice)public onlyOwner{\n        Item item = new Item(this,_itemPrice,itemIndex);\n        items[itemIndex]._item = item;\n        items[itemIndex]._identifier = _identifier;\n        items[itemIndex]._itemPrice  = _itemPrice;\n        items[itemIndex]._state      = SupplychainState.Created;\n        emit SupplyChainStep(itemIndex, uint(items[itemIndex]._state),address(item));\n        itemIndex ++;\n\n    }\n\n    function triggerPayment(uint _itemIndex) public payable {\n        require(items[_itemIndex]._itemPrice == msg.value,\"Only full payment are accepted\");\n        require(items[_itemIndex]._state == SupplychainState.Created,\"items are not created to payment\");\n        items[_itemIndex]._state = SupplychainState.Paid;\n\n        emit SupplyChainStep(_itemIndex, uint(items[_itemIndex]._state),address(items[_itemIndex]._item));\n        \n\n    }\n\n    function triggerDelivery(uint _itemIndex) public onlyOwner {\n        require(items[_itemIndex]._state == SupplychainState.Paid,\"item in the further in the chain\");\n        items[_itemIndex]._state = SupplychainState.Delivered;\n\n        emit SupplyChainStep(_itemIndex, uint(items[_itemIndex]._state),address(items[_itemIndex]._item));\n\n    }\n\n}",
  "sourcePath": "/home/aaa/Documents/ProjectEventTrigger/contracts/ItemManager.sol",
  "compiler": {
    "name": "solc",
    "version": "0.8.12+commit.f00d7308.Emscripten.clang"
  },
  "schemaVersion": "3.4.4",
  "updatedAt": "2022-03-10T10:51:21.663Z",
  "devdoc": {
    "kind": "dev",
    "methods": {},
    "version": 1
  },
  "userdoc": {
    "kind": "user",
    "methods": {},
    "version": 1
  }
}