{
  "contractName": "Ownable",
  "abi": [
    {
      "inputs": [],
      "stateMutability": "nonpayable",
      "type": "constructor"
    },
    {
      "inputs": [],
      "name": "isOwner",
      "outputs": [
        {
          "internalType": "bool",
          "name": "",
          "type": "bool"
        }
      ],
      "stateMutability": "view",
      "type": "function"
    }
  ],
  "bytecode": "0x608060405234801561001057600080fd5b50336000806101000a81548173ffffffffffffffffffffffffffffffffffffffff021916908373ffffffffffffffffffffffffffffffffffffffff160217905550610105806100606000396000f3fe6080604052348015600f57600080fd5b506004361060285760003560e01c80638f32d59b14602d575b600080fd5b60336047565b604051603e919060b6565b60405180910390f35b60003373ffffffffffffffffffffffffffffffffffffffff1660008054906101000a900473ffffffffffffffffffffffffffffffffffffffff1673ffffffffffffffffffffffffffffffffffffffff1614905090565b60008115159050919050565b60b081609d565b82525050565b600060208201905060c9600083018460a9565b9291505056fea2646970667358221220886782a403cbd89afe936acb81be68e5a95dae91f4f83352d29b43f1eb28b5cc64736f6c634300080c0033",
  "immutableReferences": {},
  "source": "//SPDX-License-Identifier:MIT\npragma solidity ^0.8.1;\n\ncontract Ownable{\n    address owner;\n    \n    constructor(){\n        owner = msg.sender;\n    }\n\n    modifier onlyOwner() {\n        require(isOwner(),\"Only Owner has access\") ;\n        _;\n    }\n\n    function isOwner()public view returns(bool){\n        return(owner==msg.sender);\n    }\n}",
  "sourcePath": "/home/aaa/Documents/ProjectEventTrigger/contracts/Ownable.sol",
  "compiler": {
    "name": "solc",
    "version": "0.8.12+commit.f00d7308.Emscripten.clang"
  },
  "schemaVersion": "3.4.4",
  "updatedAt": "2022-03-10T10:51:21.667Z",
  "devdoc": {
    "kind": "dev",
    "methods": {},
    "version": 1
  },
  "userdoc": {
    "kind": "user",
    "methods": {},
    "version": 1
  }
}